:03000000020006F5
:10005F007508C4750916750A04750B17750C447568
:10006F000D17750E84750F177510C475111775124E
:10007F0004751318751444751518751684751718AB
:10008F00E4F51AF51BF51CF51D751E76751F3575F4
:10009F0020497521D375228B75235775240C75252F
:1000AF000E75264B752741752853752948752A49B2
:0C00BF00752B53752C41752D4202000377
:03000300020F0FDA
:1000CB007F02DFFE22D2A0C2A0D2A1C2A1D2A2C2C5
:1000DB00A322C02E85812E0581AD82AE83AFF03079
:1000EB00A0FD7C0030A1FDA82E08A2A2E433F6C02F
:1000FB0007C006C005C0041200CBD004D005D00643
:10010B00D0078D828E838FF01214CCFA8C038BF078
:10011B0005F07401800225E0D5F0FBF452028CF05F
:10012B0005F0A82E08E6800225E0D5F0FB42028DF3
:10013B00828E838FF0EA12148F0CBC080040A51539
:10014B0081D02E22C02E85812EC082C083C0F005A7
:10015B008105810581751800E52E24FAF8C3E51891
:10016B009640030202BDE52E24F7F8E51826FAE4C3
:10017B000836FB0886048A828B838CF01214CCFA27
:10018B007C001ABAFF011CC004C0027408C0E0E472
:10019B00C0E08A828C83121525AB82AF8315811543
:1001AB0081D002D004A82E08EB26FBEF0836FF08FF
:1001BB0086068B828F838EF01214CCFB7F00C007D8
:1001CB00C0037408C0E0E4C0E08A828C831214E898
:1001DB00AD8215811581D003D0078DF005F0800617
:1001EB00EB2BFBEF33FFD5F0F7530380E4A2E7CB08
:1001FB0033CB33CB540130E00244FE8B19E52E2474
:10020B00FBF8E52E2404F9E6F708E609F708E609FA
:10021B00F7AB187C00C004C0037408C0E0E4C0E076
:10022B008B828C83121525AA82AF8315811581D001
:10023B0003D004E52E2404F8EA26FAEF0836FF086B
:10024B008606E52E2404F874075BF6087600E52E87
:10025B002404F886F005F07C80E4FD3392D280080C
:10026B00A2D2ED13FDEC13FCD5F0F5ECF4FC8A8275
:10027B008F838EF01214CC5204AB19E45401A2E01C
:10028B00CB13CB13CBFDE52E2404F886F005F0ED54
:10029B003392D28008A2D2ED13FDEB13FBD5F0F510
:1002AB00EB42048A828F838EF0EC12148F051802B6
:1002BB000163852E81D02E22C02EE581F52E2410D0
:1002CB00F581AD82AE83AFF0E4F51AF51BF51CF5A5
:1002DB001D751804851C1D851B1C851A1B751A00A2
:1002EB00E5182DFAE43EFB8F048A828B838CF01287
:1002FB0014CCFAC005C006C007E4FBFCFFEA421AA7
:10030B00EB421BEC421CEF421D0518C3E518940889
:10031B00D007D006D00540BC751800E52E24F8F8A0
:10032B00A92E09E6F708E609F708E609F7E518909C
:10033B0018C493FC1C8CF005F0AF1AAE1BAD1CACB3
:10034B001D800CEF2FFFEE33FEED33FDEC33FCD5B0
:10035B00F0F1530480EC235401FF7E008F19AF188A
:10036B00C007C0067408C0E0E4C0E08F828E831221
:10037B001525AA82AC8315811581D006D007A82E2E
:10038B0008E52E2408F9EA26F7EC083609F708E603
:10039B0009F75307077E008FF005F07A80E4FC33F2
:1003AB0092D28008A2D2EC13FCEA13FAD5F0F5EA4C
:1003BB00F4FAE52E2408F886820886830886F01264
:1003CB0014CC5202AB19E4C3CB13CB13CBFC8FF081
:1003DB0005F0EC3392D28008A2D2EC13FCEB13FBAA
:1003EB00D5F0F5EB4202E52E2408F88682088683C9
:1003FB000886F0EA12148F0518E51824D040030282
:10040B000338751800A82E08E51826FFE40836FEF9
:10041B00088605A82E08E52E2404F9E51826F7E42E
:10042B00083609F708E609F7E52E24FBF8860208DB
:10043B008603088604E5182AFAE43BFB8A828B8341
:10044B008CF01214CCFAE52E2404F88682088683ED
:10045B000886F01214CCFC62028F828E838DF0EA38
:10046B0012148F051874F92518509AE52E2404F8E8
:10047B00E4F608F608F608F6E52E2410F87600E503
:10048B002E240BF87600E52E2410F8E675F006A462
:10049B00F518E52E2410F886027B00C002C00390ED
:1004AB0000061214AAAA82AB831581158174062A41
:1004BB00FAE43BFBAF187E00C3EF9AEE64808BF03F
:1004CB0063F08095F05079C007C0067408C0E0E473
:1004DB00C0E08F828E83121525AA82AC83158115FD
:1004EB0081D006D007A82E08EA26FAEC0836FB08BE
:1004FB0086048A828B838CF01214CCFA7D007407ED
:10050B005FFB8BF005F0AB02AC058006EB2BFBEC35
:10051B0033FCD5F0F7530380E4A2E7CB33CB33CBDB
:10052B00540130E00244FEFC8B19E52E240BF8E657
:10053B0026FBE52E240BF8E5194BF6051802049D56
:10054B00E52E240BF8741E56C313FFE52E240BF86F
:10055B00E6A2E5E43325E0FAE52E240BF8E6540198
:10056B004202E52E2410F8E625E02408F987060957
:10057B008705197C00E52E2408F8A602ECC454F07C
:10058B00C6C4C666C654F0C66608F68F037C00E583
:10059B002E2408F8EB26FBEC0836FCEB2EF582EC50
:1005AB003DF583E493FBE52E2404F8080886050843
:1005BB00E6C454F0CDC4CD6DCD54F0CD6DFC181800
:1005CB00E6C4540F4DFD18860708E6C454F0CFC49B
:1005DB00CF6FCF54F0CF6FFEE52E240CF8A6030897
:1005EB007600087600087600E52E240CF8E52E241C
:1005FB0004F9E64FF708E64E09F708E64D09F70848
:10060B00E64C09F7E52E2410F806E52E2410F8B673
:10061B000800500302048AA82E08868208868308E5
:10062B0086F0E412148FA312148FA312148FA3124B
:10063B00148FA82E08740426FAE40836FB088604E7
:10064B008A828B838CF0E412148FA312148FA31263
:10065B00148FA312148FF518E5189018F493FC1C43
:10066B008CF005F0E52E2404F8860708860608862C
:10067B0005088604800CEF2FFFEE33FEED33FDEC07
:10068B0033FCD5F0F1530480EC235401FF7C008F35
:10069B0019AB1874202BFFE43CFEC007C00674088E
:1006AB00C0E0E4C0E08F828E83121525AA82AC8352
:1006BB0015811581D006D007A82E08E52E2408F940
:1006CB00EA26F7EC083609F708E609F77408C0E0E4
:1006DB00E4C0E08F828E831214E8AF82AE83158163
:1006EB0015818FF005F07A80E4FC3392D28008A25A
:1006FB00D2EC13FCEA13FAD5F0F5EAF4FAE52E2462
:10070B0008F886820886830886F01214CC5202AB56
:10071B0019E4C3CB13CB13CBFC8FF005F0EC339266
:10072B00D28008A2D2EC13FCEB13FBD5F0F5EB4215
:10073B0002E52E2408F886820886830886F0EA12E2
:10074B00148F0518E51824E04003020663852E81FB
:10075B00D02E22C02E85812EC082C083C0F0E581B1
:10076B002411F581E4F51AF51BF51CF51DF518851B
:10077B001C1D851B1C851A1B751A00A82E08E51855
:10078B0026FAE40836FB0886048A828B838CF012E7
:10079B0014CCFAE4FBFCFFEA421AEB421BEC421CC2
:1007AB00EF421D051874FC251850C4E52E24FDF8E6
:1007BB00B60103020E59531AF0E51AC45401F51988
:1007CB00E51DC313F51DE51C13F51CE51B13F51BEC
:1007DB00E51A13F51AE52E2404F8A61A08A61B0829
:1007EB00A61C747F551D08F6AC19E4FDFEEC0354F2
:1007FB0080FF7C00E52E2404F8EC46F51AED084644
:10080B00F51BEE0846F51CEF0846F51D8E18A82EB5
:10081B0008E52E2404F9E51826F7E4083609F7084D
:10082B00E609F77403C39518C40354F8FF8FF0055A
:10083B00F0AC1AAD1BAE1CAF1D800DC3EF13FFEE5A
:10084B0013FEED13FDEC13FCD5F0F0E52E2404F8AC
:10085B0086820886830886F0EC12148F051874FDC7
:10086B00251850AAA82E08E52E2408F9740326F79C
:10087B00E4083609F708E609F7E52E2408F886821E
:10088B000886830886F01214CCFF53070FE52E243D
:10089B0008F886820886830886F0EF12148FAF1A49
:1008AB005307F0E52E2408F886820886830886F025
:1008BB001214CC4207E52E2408F88682088683089A
:1008CB0086F0EF12148F8F1A751B00751C00851C98
:1008DB001D851B1C851A1B751A00A82E08E52E24D6
:1008EB0004F9740426F7E4083609F708E609F7E576
:1008FB002E2404F886820886830886F01214CCFC1A
:10090B00E4FDFEFFEC421AED421BEE421CEF421DD2
:10091B00851C1D851B1C851A1B751A00A82E08E546
:10092B002E240BF9740526F7E4083609F708E609B7
:10093B00F7E52E240BF886820886830886F01214BE
:10094B00CCFAE4FBFCFFEA421AEB421BEC421CEF35
:10095B00421D851C1D851B1C851A1B751A00A82E94
:10096B0008E52E240EF9740626F7E4083609F70875
:10097B00E609F7E52E240EF886820886830886F0B2
:10098B001214CCFAE4FBFCFFEA421AEB421BEC42DA
:10099B001CEF421DE51DC454F0C51CC4C51C651CD1
:1009AB00C51C54F0C51C651CF51DE51BC4540F4537
:1009BB001CF51CE51BC454F0C51AC4C51A651AC531
:1009CB001A54F0C51A651AF51BE51AC45401F5192A
:1009DB00E51DC313F51DE51C13F51CE51B13F51BDA
:1009EB00E51A13F51AE52E2411F8A61A08A61B080A
:1009FB00A61C747F551D08F6AA19E4FBFEEA0354E6
:100A0B0080FF7A00E52E2411F8EA46F51AEB08462A
:100A1B00F51BEE0846F51CEF0846F51DE52E2408E0
:100A2B00F886820886830886F01214CCFF5307F0F1
:100A3B00E52E2408F886820886830886F0EF1214C8
:100A4B008FE51DC4540FFCE4FDFEE52E2408F8864B
:100A5B00820886830886F01214CCFF4204E52E240C
:100A6B0008F886820886830886F0EC12148FE51D41
:100A7B00C454F0C51CC4C51C651CC51C54F0C51C56
:100A8B00651CF51DE51BC4540F451CF51CE51BC46B
:100A9B0054F0C51AC4C51A651AC51A54F0C51A659F
:100AAB001AF51B751804A82E08E52E2411F9E51864
:100ABB0026F7E4083609F708E609F77407C3951813
:100ACB00C40354F8FC8CF005F0AA1AAB1BAC1CAF9A
:100ADB001D800DC3EF13FFEC13FCEB13FBEA13FAB2
:100AEB00D5F0F0E52E2411F886820886830886F06F
:100AFB00EA12148F051874F8251850AAE52E24FD58
:100B0B00F8B60203020E59E52E24FDF8B6090302CE
:100B1B000E59E52E24FDF8B61003020E5975180078
:100B2B00851C1D851B1C851A1B751A00A82E08E534
:100B3B001826FDE40836FE0886078D828E838FF01B
:100B4B001214CCFDE4FFFEFCED421AEF421BEE4209
:100B5B001CEC421D051874FC251850C4531AF0E503
:100B6B001AC45401F519E51DC313F51DE51C13F546
:100B7B001CE51B13F51BE51A13F51AE52E2411F8CA
:100B8B00A61A08A61B08A61C747F551D08F6AA19E1
:100B9B00E4FBFEEA035480FF7A00E52E2411F8EA09
:100BAB0046F51AEB0846F51BEE0846F51CEF084612
:100BBB00F51D8E18A82E08E52E2411F9E51826F739
:100BCB00E4083609F708E609F77403C39518C4035C
:100BDB0054F8FC8CF005F0AA1AAB1BAC1CAF1D80B3
:100BEB000DC3EF13FFEC13FCEB13FBEA13FAD5F079
:100BFB00F0E52E2411F886820886830886F0EA1227
:100C0B00148F051874FD251850AAE52E2408F886B4
:100C1B00820886830886F01214CCFF53070FE52E4B
:100C2B002408F886820886830886F0EF12148FAFAB
:100C3B001A5307F0E52E2408F88682088683088667
:100C4B00F01214CC4207E52E2408F886820886831E
:100C5B000886F0EF12148F8F1A751B00751C008518
:100C6B001C1D851B1C851A1B751A00E52E2404F808
:100C7B0086820886830886F01214CCFFE4FEFDFC06
:100C8B00EF421AEE421BED421CEC421D851C1D85EA
:100C9B001B1C851A1B751A00E52E240BF88682087F
:100CAB0086830886F01214CCFFE4FEFDFCEF421A9B
:100CBB00EE421BED421CEC421D851C1D851B1C8549
:100CCB001A1B751A00E52E240EF8868208868308F7
:100CDB0086F01214CCFFE4FEFDFCEF421AEE421B31
:100CEB00ED421CEC421DE51DC454F0C51CC4C51CD3
:100CFB00651CC51C54F0C51C651CF51DE51BC454B7
:100D0B000F451CF51CE51BC454F0C51AC4C51A6568
:100D1B001AC51A54F0C51A651AF51BE51AC4540105
:100D2B00F519E51DC313F51DE51C13F51CE51B1388
:100D3B00F51BE51A13F51AE52E2411F8A61A08A6C9
:100D4B001B08A61C747F551D08F6AA19E4FBFEEAC6
:100D5B00035480FF7A00E52E2411F8EA46F51AEBCE
:100D6B000846F51BEE0846F51CEF0846F51DE52E6B
:100D7B002408F886820886830886F01214CCFF5369
:100D8B0007F0E52E2408F886820886830886F0EFA4
:100D9B0012148FE51DC4540FFCE4FDFEE52E240850
:100DAB00F886820886830886F01214CCFF4204E58D
:100DBB002E2408F886820886830886F0EC12148F9E
:100DCB00E51DC454F0C51CC4C51C651CC51C54F0E2
:100DDB00C51C651CF51DE51BC4540F451CF51CE516
:100DEB001BC454F0C51AC4C51A651AC51A54F0C5EC
:100DFB001A651AF51B751804A82E08E52E2411F98F
:100E0B00E51826F7E4083609F708E609F77407C36F
:100E1B009518C40354F8FC8CF005F0AA1AAB1BAC64
:100E2B001CAF1D800DC3EF13FFEC13FCEB13FBEAA0
:100E3B0013FAD5F0F0E52E2411F886820886830884
:100E4B0086F0EA12148F051874F8251850AAE52EAF
:100E5B0024FAF8E52E240EF9E6F708E609F708E67A
:100E6B0009F7E52E240EF8E52E2411F9740426F764
:100E7B00E4083609F708E609F7A82E08740426FAE1
:100E8B00E40836FB0886048A828B838CF01214CC20
:100E9B00FAA31214CCFBA31214CCFCA31214CCFF98
:100EAB00E52E2411F886820886830886F0EA121450
:100EBB008FA3EB12148FA3EC12148FA3EF12148FCA
:100ECB00A82E0886820886830886F01214CCFDA310
:100EDB001214CCFEA31214CCFCA31214CCFFE52EDF
:100EEB00240EF886820886830886F0ED12148FA3F1
:100EFB00EE12148FA3EC12148FA3EF12148F852E06
:100F0B0081D02E22C02EE581F52E2428F5817598EF
:100F1B0050758920758DFD758BFDD28E75994B1093
:100F2B00990280FB1200CB75993A10990280FB1243
:100F3B0000CB7518003098FD859919C2981200CB1B
:100F4B0085199910990280FB1200CBE51924D0F575
:100F5B001924F65007E519FF24F9F519E51824268D
:100F6B00F9E519C454F0F7E5182426F9E5182426F9
:100F7B00F8860774F05FF77519003098FD8599199D
:100F8B00C2981200CB85199910990280FB1200CBE5
:100F9B00E51924D0F51924F65007E519FF24F9F5C6
:100FAB0019E5182426F9E5182426F88607E5194FC4
:100FBB00F7051874F825184003020F401200CB7583
:100FCB001800E518241EFF7E007D408F828E838DD6
:100FDB00F01200DD051874F8251850E675990A1003
:100FEB00990280FB1200CB75994310990280FB7517
:100FFB00995410990280FB1200CB75993A10990203
:10100B0080FB1200CB1200CB751800E518241EF9DB
:10101B00879910990280FB051874F8251850EC126B
:10102B0000CBE52E2409F87600E52E2409FF04F801
:10103B00760074022FF8760074032FF87600740490
:10104B002FF8760074052FF8760074062FF87600CB
:10105B0074072FF87600E52E2411F87600E52E2480
:10106B0011FF04F8760074022FF8760074032FF842
:10107B00760074042FF8760074052FF8760074064A
:10108B002FF8760074072FF87600E52E2419F876E2
:10109B0000E52E2419FF04F8760074022FF8760071
:1010AB0074032FF8760074042FF8760074052FF86C
:1010BB00760074062FF8760074072FF87600E52E6D
:1010CB002421F87600E52E2421FF04F87600740223
:1010DB002FF8760074032FF8760074042FF876003F
:1010EB0074052FF8760074062FF8760074072FF826
:1010FB007600E52E2409F9FD7E007F40C001744483
:10110B00C0E07416C0E07480C0E003C0E0C005C04E
:10111B0006C00790001EF5F012014FE58124F9F58A
:10112B0081D001751800E518241EF8763005187467
:10113B00F8251850F1E52E2419F8FD7E007F40C0EC
:10114B0001C00074DCC0E07415C0E07480C0E074B2
:10115B0038C0E0C005C006C00790002675F04012ED
:10116B00014FE58124F9F581D000E52E2403F9A781
:10117B0000D001E52E2411FEC000A82E0808A606FB
:10118B00A82E08A601E52E2408F87601D000E52E3E
:10119B002421FAC000E52E2404F8A60208760008E4
:1011AB007640E52E2403F886047D007F40D000C0F6
:1011BB0006C002C001C0008500F0E52E2404F8E64D
:1011CB00C0E008E6C0E008E6C0E0A8F08500F0E566
:1011DB002E2408F8E6C0E08C828D838FF012075E18
:1011EB00E58124FCF581D000D001D002D006C000EF
:1011FB00E52E2404F8A606087600087640D0008A6F
:10120B0003C0067E007F40C006C002C001C0007450
:10121B0014C0E07416C0E07480C0E07430C0E08588
:10122B0000F0E52E2404F8E6C0E008E6C0E008E68E
:10123B00C0E08B828E838FF012014FE58124F9F58C
:10124B0081D000D001D002D006C000A82E0808C063
:10125B0001E52E2404F9E6F7097700097740D00160
:10126B00A82E0886037C007F40D000C006C002C0B9
:10127B0001C000741EC0E07400C0E0EFC0E0850048
:10128B00F0E52E2404F8E6C0E008E6C0E008E6C06E
:10129B00E08B828C838FF01202C3E58124FAF581F7
:1012AB00D000D001D002D006870409870509870634
:1012BB00098707191919E5226204E5236205E5245C
:1012CB006206E52562078C228D238E248F25C000B4
:1012DB00E52E2404F8740429F6E52E2404F8860080
:1012EB0086040886050886060886071818188C1EBB
:1012FB008D1F8E208F21A80286040886050886067E
:10130B00088607D000A60408A60508A60608A607A7
:10131B00181818740428FFC000E52E2407F874046D
:10132B002AF6E52E2407F88600860308860408862D
:10133B0005088606181818A807A60308A60408A609
:10134B000508A606A802760008760008760008763F
:10135B0000E52E2407F88600760008760008760054
:10136B00087600181818AC1EAD1FAE20AF21A704CD
:10137B0009A70509A70609A707191919AC22AD2357
:10138B00AE24AF25E52E2404F88600A60408A60596
:10139B0008A60608A607181818E4F51EF51FF52071
:1013AB00F521F522F523F524F525E52E2408F8067D
:1013BB00E52E2408F8B61100D000D0065003021118
:1013CB0099E52E2404F88600860308860408860512
:1013DB00088607181818A802A60308A60408A6056D
:1013EB0008A60787030987040987050987071919C1
:1013FB0019E52E2407F88600A60308A60408A605FF
:10140B0008A6071818188A077D007C407484C0E072
:10141B007416C0E07480C0E003C0E0741EC0E074BA
:10142B0000C0E0ECC0E08F828D838CF012014FE5A1
:10143B008124F9F58175990A10990280FB1200CB72
:10144B0075995010990280FB75995410990280FB85
:10145B001200CB75993A10990280FB1200CB120047
:10146B00CB751800E518241EF9879910990280FB9B
:10147B00051874F8251850EC1200CB020FCA852EF4
:04148B0081D02E22BC
:1015DC0039312921191109013A322A221A120A0227
:1015EC003B332B231B130B033C342C243F372F276B
:1015FC001F170F073E362E261E160E063D352D25BF
:10160C001D150D051C140C040E110B180105031CE3
:10161C000F06150A17130C041A0810071B140D02D9
:10162C0029341F252F371E28332D21302C312738F4
:10163C0022352E2A32241D203A322A221A120A026C
:10164C003C342C241C140C043E362E261E160E067E
:10165C004038302820181008393129211911090176
:10166C003B332B231B130B033D352D251D150D056E
:10167C003F372F271F170F07280830103818402026
:10168C0027072F0F37173F1F26062E0E36163E1E26
:10169C0025052D0D35153D1D24042C0C34143C1C36
:1016AC0023032B0B33133B1B22022A0A32123A1A46
:1016BC0021012909311139190E040D01020F0B08F2
:1016CC00030A060C05090007000F07040E020D01A2
:1016DC000A060C0B0905030804010E080D06020B83
:1016EC000F0C0907030A05000F0C08020409010777
:1016FC00050B030E0A00060D0F01080E060B030462
:10170C000907020D0C00050A030D04070F02080E51
:10171C000C00010A06090B05000E070B0A040D014B
:10172C0005080C060903020F0D080A01030F040239
:10173C000B06070C00050E090A00090E06030F051F
:10174C00010D0C070B0402080D0700090304060A1F
:10175C000208050E0C0B0F010D060409080F0300FF
:10176C000B01020C050A0E07010A0D0006090807F9
:10177C00040F0E030B05020C070D0E030006090ADD
:10178C00010208050B0C040F0D080B05060F0003D6
:10179C000407020C010A0E090A0609000C0B070DBE
:1017AC000F01030E05020804030F00060A010D08C1
:1017BC000904050B0C07020E020C0401070A0B06A8
:1017CC000805030F0D000E090E0B020C04070D018A
:1017DC0005000F0A030908060402010B0A0D07088D
:1017EC000F090C050603000E0B080C07010E020D69
:1017FC00060F00090A0405030C010A0F090206086A
:10180C00000D03040E07050B0A0F0402070C090553
:10181C0006010D0E000B0308090E0F0502080C0340
:10182C000700040A010D0B060403020C09050F0A3C
:10183C000B0E01070600080D040B020E0F00080D1D
:10184C00030C0907050A06010D000B070409010A20
:10185C000E03050C020F080601040B0D0C03070EFA
:10186C000A0F060800050902060B0D0801040A07F9
:10187C000905000F0E02030C0D020804060F0B01E4
:10188C000A09030E05000C07010F0D080A030704D3
:10189C000C05060B000E0902070B0401090C0E02C5
:1018AC0000060A0D0F03050802010E07040A080DB5
:1018BC000F0C09000305060B2001020304050405A7
:1018CC000607080908090A0B0C0D0C0D0E0F101158
:1018DC0010111213141514151617181918191A1BA0
:1018EC001C1D1C1D1E1F2001100714151D0C1C1186
:1018FC00010F171A05121F0A0208180E201B0309E4
:08190C00130D1E06160B041951
:06003500E478FFF6D8FD9F
:100013007900E94400601B7A00901914780175A0F7
:1000230000E493F2A308B8000205A0D9F4DAF2754C
:02003300A0FF2C
:10148F0020F71130F6138883A88220F509F6A88378
:10149F007583002280FEF280F5F02274FE2581F81C
:1014AF00E68582F0A4C0E08582F018E6A4F582D02C
:0D14BF00E025F0C58386F0A42583F5832287
:10003B007800E84400600A790175A000E4F309D860
:10004B00FC7800E84400600C7900900001E4F0A318
:04005B00D8FCD9FAFA
:0D00060075812E1215D8E5826003020003FB
:1014CC0020F71430F6148883A88220F507E6A88349
:1014DC0075830022E280F7E49322E022C2D5E583F3
:1014EC0030E70DD2D5E4C39582F582E49583F5837C
:1014FC00E58124FEF8E630E70918E4C396F6E40823
:10150C0096F6860118860012156C30D50BE4C3953F
:10151C0082F582E49583F58322C2D5E58330E70D0D
:10152C00D2D5E4C39582F582E49583F583E58124D5
:10153C00FEF8E630E70AB2D518E4C396F6E408964E
:10154C00F918E6F81215B130D50BE4C39582F58283
:10155C00E49583F58322E58124FEF8860118860044
:10156C00E84960367A01E825E0F8E933400EF9E500
:10157C008298E5839940030A80ECC3E913F9E813D8
:10158C00F8C3E58298F5F0E583994005F58385F07D
:10159C0082C3E913F9E813F8DAE722E58124FEF8AF
:1015AC00E6F918E6F87A10E4FBFCE58225E0F58212
:1015BC00E58333F583EB33FBEC33FCEB98F5F0EC84
:1015CC00994006FCABF0438201DADF2275820022DF
:00000001FF
