:03000000020006F5
:20005F007508E8750917750A28750B18750C68750D18750EA8750F187510E875111875126C
:20007F00287513197514687515197516A8751719E4F51AF51BF51CF51D751E4B751F4175DE
:14009F00205375214875224975235375244175254202000376
:03000300020EE00A
:2000B3007F64DFFE227F03DFFE22C2A0C2A0C2A1C2A1C2A2C2A2C2A3D2A322AF82D2A0C217
:2000D300A1C2A07E008EF005F0EF8002C313D5F0FB540124FF92A2C007C0061200B3D2A1A1
:2000F3001200B8C2A11200B3D006D0070EBE080040D322C026858126C082C083C0F0058178
:2001130005810581751800E52624FAF8C3E518964003020274E52624F7F8E51826FAE408DA
:2001330036FB0886048A828B838CF01215F0FA7C001ABAFF011CC004C0027408C0E0E4C090
:20015300E08A828C83121649AB82AF8315811581D002D004A82608EB26FBEF0836FF088653
:20017300068B828F838EF01215F0FB7F00C007C0037408C0E0E4C0E08A828C8312160CAD12
:200193008215811581D003D0078DF005F08006EB2BFBEF33FFD5F0F7530380E4A2E7CB33CD
:2001B300CB33CB540130E00244FE8B19E52624FBF8E5262404F9E6F708E609F708E609F70F
:2001D300AB187C00C004C0037408C0E0E4C0E08B828C83121649AA82AF8315811581D003BC
:2001F300D004E5262404F8EA26FAEF0836FF088606E5262404F874075BF6087600E526247F
:2002130004F886F005F07C80E4FD3392D28008A2D2ED13FDEC13FCD5F0F5ECF4FC8A828FCB
:20023300838EF01215F05204AB19E45401A2E0CB13CB13CBFDE5262404F886F005F0ED3384
:2002530092D28008A2D2ED13FDEB13FBD5F0F5EB42048A828F838EF0EC1215B305180201C8
:200273001A852681D02622C026E581F5262410F581AD82AE83AFF0E4F51AF51BF51CF51DD7
:20029300751804851C1D851B1C851A1B751A00E5182DFAE43EFB8F048A828B838CF0121566
:2002B300F0FAC005C006C007E4FBFCFFEA421AEB421BEC421CEF421D0518C3E5189408D0A6
:2002D30007D006D00540BC751800E52624F8F8A92609E6F708E609F708E609F7E51890197A
:2002F300E893FC1C8CF005F0AF1AAE1BAD1CAC1D800CEF2FFFEE33FEED33FDEC33FCD5F0FE
:20031300F1530480EC235401FF7E008F19AF18C007C0067408C0E0E4C0E08F828E8312163B
:2003330049AA82AC8315811581D006D007A82608E5262408F9EA26F7EC083609F708E609FF
:20035300F75307077E008FF005F07A80E4FC3392D28008A2D2EC13FCEA13FAD5F0F5EAF449
:20037300FAE5262408F886820886830886F01215F05202AB19E4C3CB13CB13CBFC8FF005CD
:20039300F0EC3392D28008A2D2EC13FCEB13FBD5F0F5EB4202E5262408F8868208868308AE
:2003B30086F0EA1215B30518E51824D040030202EF751800A82608E51826FFE40836FE08FF
:2003D3008605A82608E5262404F9E51826F7E4083609F708E609F7E52624FBF8860208861B
:2003F30003088604E5182AFAE43BFB8A828B838CF01215F0FAE5262404F886820886830827
:2004130086F01215F0FC62028F828E838DF0EA1215B3051874F92518509AE5262404F8E4B9
:20043300F608F608F608F6E5262410F87600E526240BF87600E5262410F8E675F006A4F543
:2004530018E5262410F886027B00C002C0039000061215CEAA82AB831581158174062AFA03
:20047300E43BFBAF187E00C3EF9AEE64808BF063F08095F05079C007C0067408C0E0E4C003
:20049300E08F828E83121649AA82AC8315811581D006D007A82608EA26FAEC0836FB08860F
:2004B300048A828B838CF01215F0FA7D0074075FFB8BF005F0AB02AC058006EB2BFBEC33A8
:2004D300FCD5F0F7530380E4A2E7CB33CB33CB540130E00244FEFC8B19E526240BF8E626C0
:2004F300FBE526240BF8E5194BF60518020454E526240BF8741E56C313FFE526240BF8E6FF
:20051300A2E5E43325E0FAE526240BF8E654014202E5262410F8E625E02408F98706098716
:2005330005197C00E5262408F8A602ECC454F0C6C4C666C654F0C66608F68F037C00E52640
:200553002408F8EB26FBEC0836FCEB2EF582EC3DF583E493FBE5262404F80808860508E6DB
:20057300C454F0CDC4CD6DCD54F0CD6DFC1818E6C4540F4DFD18860708E6C454F0CFC4CFCA
:200593006FCF54F0CF6FFEE526240CF8A603087600087600087600E526240CF8E5262404CE
:2005B300F9E64FF708E64E09F708E64D09F708E64C09F7E5262410F806E5262410F8B60820
:2005D300005003020441A8260886820886830886F0E41215B3A31215B3A31215B3A312157F
:2005F300B3A82608740426FAE40836FB0886048A828B838CF0E41215B3A31215B3A312157D
:20061300B3A31215B3F518E518901A1893FC1C8CF005F0E5262404F88607088606088605D0
:20063300088604800CEF2FFFEE33FEED33FDEC33FCD5F0F1530480EC235401FF7C008F1901
:20065300AB1874202BFFE43CFEC007C0067408C0E0E4C0E08F828E83121649AA82AC8315B8
:20067300811581D006D007A82608E5262408F9EA26F7EC083609F708E609F77408C0E0E47E
:20069300C0E08F828E8312160CAF82AE83158115818FF005F07A80E4FC3392D28008A2D2E2
:2006B300EC13FCEA13FAD5F0F5EAF4FAE5262408F886820886830886F01215F05202AB19AE
:2006D300E4C3CB13CB13CBFC8FF005F0EC3392D28008A2D2EC13FCEB13FBD5F0F5EB42020D
:2006F300E5262408F886820886830886F0EA1215B30518E51824E0400302061A852681D0DE
:200713002622C026858126C082C083C0F0E5812411F581E4F51AF51BF51CF51DF518851C52
:200733001D851B1C851A1B751A00A82608E51826FAE40836FB0886048A828B838CF0121525
:20075300F0FAE4FBFCFFEA421AEB421BEC421CEF421D051874FC251850C4531AF0E51D233C
:200773005401F519E51A251AF51AE51B33F51BE51C33F51CE51D33F51DE5262404F874EF59
:20079300551AF608A61B08A61C08A61DAD19E4CDC4CD6DCD54F0CD6DFC3395E0FEFFE52617
:2007B3002404F8ED46F51AEC0846F51BEE0846F51CEF0846F51D751800A82608E526240448
:2007D300F9E51826F7E4083609F708E609F77403C39518C40354F8FF8FF005F0AC1AAD1BE8
:2007F300AE1CAF1D800DC3EF13FFEE13FEED13FDEC13FCD5F0F0E5262404F886820886830F
:200813000886F0EC1215B3051874FD251850AAA82608E5262408F9740326F7E4083609F700
:2008330008E609F7E5262408F886820886830886F01215F0FF53070FE5262408F886820833
:2008530086830886F0EF1215B3AF1A5307F0E5262408F886820886830886F01215F04207FC
:20087300E5262408F886820886830886F0EF1215B38F1A751B00751C00851C1D851B1C850D
:200893001A1B751A00A82608E5262404F9740426F7E4083609F708E609F7E5262404F88629
:2008B300820886830886F01215F0FCE4FDFEFFEC421AED421BEE421CEF421D851C1D851B99
:2008D3001C851A1B751A00A82608E526240BF9740526F7E4083609F708E609F7E526240BB7
:2008F300F886820886830886F01215F0FAE4FBFCFFEA421AEB421BEC421CEF421D851C1D87
:20091300851B1C851A1B751A00A82608E526240EF9740626F7E4083609F708E609F7E52601
:20093300240EF886820886830886F01215F0FAE4FBFCFFEA421AEB421BEC421CEF421DE5ED
:200953001DC454F0C51CC4C51C651CC51C54F0C51C651CF51DE51BC4540F451CF51CE51B26
:20097300C454F0C51AC4C51A651AC51A54F0C51A651AF51BE51D235401F519E51A251AF50F
:200993001AE51B33F51BE51C33F51CE51D33F51DE5262411F874EF551AF608A61B08A61CC8
:2009B30008A61DAA19E4CAC4CA6ACA54F0CA6AFB3395E0FEFFE5262411F8EA46F51AEB08A4
:2009D30046F51BEE0846F51CEF0846F51DE5262408F886820886830886F01215F0FF5307DC
:2009F300F0E5262408F886820886830886F0EF1215B3E51DC4540FFCE4FDFEE5262408F832
:200A130086820886830886F01215F0FF4204E5262408F886820886830886F0EC1215B3E55F
:200A33001DC454F0C51CC4C51C651CC51C54F0C51C651CF51DE51BC4540F451CF51CE51B45
:200A5300C454F0C51AC4C51A651AC51A54F0C51A651AF51B751804A82608E5262411F9E564
:200A73001826F7E4083609F708E609F77407C39518C40354F8FC8CF005F0AA1AAB1BAC1C61
:200A9300AF1D800DC3EF13FFEC13FCEB13FBEA13FAD5F0F0E5262411F886820886830886A7
:200AB300F0EA1215B3051874F8251850AAE52624FDF8B60103020E2AE52624FDF8B60203B8
:200AD300020E2AE52624FDF8B60903020E2AE52624FDF8B61003020E2A751800851C1D85B2
:200AF3001B1C851A1B751A00A82608E51826FDE40836FE0886078D828E838FF01215F0FD05
:200B1300E4FFFEFCED421AEF421BEE421CEC421D051874FC251850C4531AF0E51D23540104
:200B3300F519E51A251AF51AE51B33F51BE51C33F51CE51D33F51DE5262411F874EF551A6E
:200B5300F608A61B08A61C08A61DAA19E4CAC4CA6ACA54F0CA6AFB3395E0FEFFE5262411A3
:200B7300F8EA46F51AEB0846F51BEE0846F51CEF0846F51D751800A82608E5262411F9E5C5
:200B93001826F7E4083609F708E609F77403C39518C40354F8FC8CF005F0AA1AAB1BAC1C44
:200BB300AF1D800DC3EF13FFEC13FCEB13FBEA13FAD5F0F0E5262411F88682088683088686
:200BD300F0EA1215B3051874FD251850AAE5262408F886820886830886F01215F0FF530753
:200BF3000FE5262408F886820886830886F0EF1215B3AF1A5307F0E5262408F8868208866C
:200C1300830886F01215F04207E5262408F886820886830886F0EF1215B38F1A751B007523
:200C33001C00851C1D851B1C851A1B751A00E5262404F886820886830886F01215F0FFE406
:200C5300FEFDFCEF421AEE421BED421CEC421D851C1D851B1C851A1B751A00E526240BF869
:200C730086820886830886F01215F0FFE4FEFDFCEF421AEE421BED421CEC421D851C1D856A
:200C93001B1C851A1B751A00E526240EF886820886830886F01215F0FFE4FEFDFCEF421AB9
:200CB300EE421BED421CEC421DE51DC454F0C51CC4C51C651CC51C54F0C51C651CF51DE5B1
:200CD3001BC4540F451CF51CE51BC454F0C51AC4C51A651AC51A54F0C51A651AF51BE51DB1
:200CF300235401F519E51A251AF51AE51B33F51BE51C33F51CE51D33F51DE5262411F87493
:200D1300EF551AF608A61B08A61C08A61DAA19E4CAC4CA6ACA54F0CA6AFB3395E0FEFFE5DE
:200D3300262411F8EA46F51AEB0846F51BEE0846F51CEF0846F51DE5262408F88682088664
:200D5300830886F01215F0FF5307F0E5262408F886820886830886F0EF1215B3E51DC45476
:200D73000FFCE4FDFEE5262408F886820886830886F01215F0FF4204E5262408F886820815
:200D930086830886F0EC1215B3E51DC454F0C51CC4C51C651CC51C54F0C51C651CF51DE564
:200DB3001BC4540F451CF51CE51BC454F0C51AC4C51A651AC51A54F0C51A651AF51B751845
:200DD30004A82608E5262411F9E51826F7E4083609F708E609F77407C39518C40354F8FCC9
:200DF3008CF005F0AA1AAB1BAC1CAF1D800DC3EF13FFEC13FCEB13FBEA13FAD5F0F0E52655
:200E13002411F886820886830886F0EA1215B3051874F8251850AAE52624FAF8E526240E19
:200E3300F9E6F708E609F708E609F7E526240EF8E5262411F9740426F7E4083609F708E6DA
:200E530009F7A82608740426FAE40836FB0886048A828B838CF01215F0FAA31215F0FBA363
:200E73001215F0FCA31215F0FFE5262411F886820886830886F0EA1215B3A3EB1215B3A3F5
:200E9300EC1215B3A3EF1215B3A8260886820886830886F01215F0FDA31215F0FEA312150A
:200EB300F0FCA31215F0FFE526240EF886820886830886F0ED1215B3A3EE1215B3A3EC12DB
:200ED30015B3A3EF1215B3852681D02622C026E581F5262439F5811200BD75985075892003
:200EF300758DFD758BFDD28EE5262411F87600A8260808E5262411F6A8260808E604F8768B
:200F130000A8260808740226F87600A8260808740326F87600A8260808740426F87600A85B
:200F3300260808740526F87600A8260808740626F87600A8260808740726F8760075994B29
:200F530010990280FB1200B375993A10990280FB1200B37518003098FD859919C29812006B
:200F7300B385199910990280FB1200B3E51924D0F51924F65007E519FE24F9F519E51824D0
:200F93001EF9E519C454F0F7E518241EF9E518241EF8860674F05EF77519003098FD859905
:200FB30019C2981200B385199910990280FB1200B3E51924D0F51924F65007E519FE24F93A
:200FD300F519E518241EF9E518241EF88606E5194EF7051874F825184003020F691200B36A
:200FF30075990A10990280FB1200B375995010990280FB1200B375995410990280FB1200F8
:20101300B375993A10990280FB1200B37518003098FD859919C2981200B38519991099024D
:2010330080FB1200B3A8260808E51826F8A619751900051874F8251850D51200B3E5262438
:201053001AF87600E526241AFE04F8760074022EF8760074032EF8760074042EF87600748F
:20107300052EF8760074062EF8760074072EF87600E5262422F87600E5262422FE04F8760F
:201093000074022EF8760074032EF8760074042EF8760074052EF8760074062EF876007465
:2010B300072EF87600E526242AF87600E526242AFE04F8760074022EF8760074032EF876C5
:2010D3000074042EF8760074052EF8760074062EF8760074072EF87600E5262432F87600D8
:2010F300E5262432FE04F8760074022EF8760074032EF8760074042EF8760074052EF876BE
:201113000074062EF8760074072EF87600E526241AF9FC7D007E40E5262411F8FA7B007FEA
:2011330040C001C0007468C0E07417C0E07480C0E003C0E0C004C005C0068A828B838FF015
:20115300120106E58124F9F581D000D001751800E51828C000F87630D000051874F8251823
:2011730050EEE526242AFEFB7C007D40C006C001C0007400C0E07417C0E07480C0E07438CD
:20119300C0E0C003C004C00590001E75F040120106E58124F9F581D000D001D006C000E5CF
:2011B300262406F8A606D000E5262422FCC001E5262405F9A700D001C000E5262404F8A614
:2011D30004A82608A601E5262419F87601D000C000E5262403F8E5262432F6E5262403F889
:2011F300C001E5262407F9E6F7097700097740D001E5262406F886037D007F40D000C00676
:20121300C004C001C0008500F0E5262407F8E6C0E008E6C0E008E6C0E0A8F08500F0E52619
:201233002419F8E6C0E08B828D838FF0120715E58124FCF581D000D001D004D006C000E52A
:20125300262407F8A604087600087640E5262403F88602D000C0047C007F40C006C004C081
:2012730001C0007438C0E07417C0E07480C0E07430C0E08500F0E5262407F8E6C0E008E634
:20129300C0E008E6C0E08A828C838FF0120106E58124F9F581D000D001D004D006C000E571
:2012B300262405F8C001E5262407F9E6F7097700097740E5262404F8E526240AF9E6F70984
:2012D3007700097740D001A8260886037D007F40D000C006C004C001C0008500F0E52624D9
:2012F30007F8E6C0E008E6C0E008E6C0E0A8F08500F0E526240AF8E6C0E008E6C0E008E6FA
:20131300C0E08B828D838FF012027AE58124FAF581D000D001D004D006740428FFC000E567
:2013330026240DF8E7F609E708F609E708F609E708F6191919A807860208860308860408F7
:201353008605E526240DF8E6620208E6620308E6620408E66205A807A60208A60308A604BB
:2013730008A605E526240DF8740429F6E526240DF8860086020886030886040886051818B4
:2013930018D000A60208A60308A60408A605181818C000E5262403F88600860208860308BB
:2013B3008604088605181818A806A60208A60308A60408A605E5262407F874042EF6E52674
:2013D3002403F8C001E526240AF9740426F7D001E526240AF8860086020886030886040818
:2013F3008605181818E5262407F88600A60208A60308A60408A605181818E5262403F8869D
:20141300007600087600087600087600181818E526240AF8860076000876000876000876DA
:2014330000181818D0008602088603088604088605181818A70209A70309A70409A705191D
:201453001919C000A8078602088603088604088605E526240DF88600A60208A60308A604D5
:2014730008A605181818D0007600087600087600087600181818C000A807760008760008EB
:201493007600087600E5262419F806E5262419F8B61100D000D00450030211E2C000E52641
:2014B300240DF886008603088605088606088607181818E5262403F88600A60308A60508C9
:2014D300A60608A607181818D0008703098705098706098707191919E526240AF98701A788
:2014F3000309A70509A70609A70719191988078F067D007C40E5262403F98703C0008B020A
:201513007B007F40C00074A8C0E07417C0E07480C0E003C0E0C006C005C0048A828B838FA8
:20153300F0120106E58124F9F581D000751800D000E51828F98782C0001200CED0000518B5
:2015530074F8251850EB75990A10990280FBC0001200B3D00075994310990280FB75995428
:2015730010990280FBC0001200B3D00075993A10990280FBC0001200B31200B3D0007518C8
:2015930000E51828F9879910990280FB051874F8251850ED1200B3020FF3852681D02622C4
:2017000039312921191109013A322A221A120A023B332B231B130B033C342C243F372F276D
:201720001F170F073E362E261E160E063D352D251D150D051C140C040E110B180105031C9E
:201740000F06150A17130C041A0810071B140D0229341F252F371E28332D21302C312738EA
:2017600022352E2A32241D203A322A221A120A023C342C241C140C043E362E261E160E0627
:20178000403830282018100839312921191109013B332B231B130B033D352D251D150D0541
:2017A0003F372F271F170F07280830103818402027072F0F37173F1F26062E0E36163E1EC9
:2017C00025052D0D35153D1D24042C0C34143C1C23032B0B33133B1B22022A0A32123A1A19
:2017E00021012909311139190E040D01020F0B08030A060C05090007000F07040E020D0151
:201800000A060C0B0905030804010E080D06020B0F0C0907030A05000F0C080204090107D6
:20182000050B030E0A00060D0F01080E060B03040907020D0C00050A030D04070F02080EB0
:201840000C00010A06090B05000E070B0A040D0105080C060903020F0D080A01030F0402A2
:201860000B06070C00050E090A00090E06030F05010D0C070B0402080D0700090304060A7C
:201880000208050E0C0B0F010D060409080F03000B01020C050A0E07010A0D000609080756
:2018A000040F0E030B05020C070D0E030006090A010208050B0C040F0D080B05060F000331
:2018C0000407020C010A0E090A0609000C0B070D0F01030E05020804030F00060A010D081D
:2018E0000904050B0C07020E020C0401070A0B060805030F0D000E090E0B020C04070D01F0
:2019000005000F0A030908060402010B0A0D07080F090C050603000E0B080C07010E020DD3
:20192000060F00090A0405030C010A0F09020608000D03040E07050B0A0F0402070C0905BB
:2019400006010D0E000B0308090E0F0502080C030700040A010D0B060403020C09050F0A9B
:201960000B0E01070600080D040B020E0F00080D030C0907050A06010D000B070409010A7C
:201980000E03050C020F080601040B0D0C03070E0A0F060800050902060B0D0801040A0752
:2019A0000905000F0E02030C0D020804060F0B010A09030E05000C07010F0D080A03070436
:2019C0000C05060B000E0902070B0401090C0E0200060A0D0F03050802010E07040A080D19
:2019E0000F0C09000305060B20010203040504050607080908090A0B0C0D0C0D0E0F1011BE
:201A000010111213141514151617181918191A1B1C1D1C1D1E1F2001100714151D0C1C1104
:181A2000010F171A05121F0A0208180E201B0309130D1E06160B041934
:06003500E478FFF6D8FD9F
:200013007900E94400601B7A00901A38780175A000E493F2A308B8000205A0D9F4DAF27541
:02003300A0FF2C
:1B15B30020F71130F6138883A88220F509F6A8837583002280FEF280F5F02237
:2015CE0074FE2581F8E68582F0A4C0E08582F018E6A4F582D0E025F0C58386F0A42583F5F8
:0215EE00832256
:20003B007800E84400600A790175A000E4F309D8FC7800E84400600C7900900001E4F0A3C3
:04005B00D8FCD9FAFA
:0D0006007581261216FCE5826003020003DE
:1C15F00020F71430F6148883A88220F507E6A88375830022E280F7E49322E0220A
:20160C00C2D5E58330E70DD2D5E4C39582F582E49583F583E58124FEF8E630E70918E4C306
:1D162C0096F6E40896F6860118860012169030D50BE4C39582F582E49583F58322E5
:20164900C2D5E58330E70DD2D5E4C39582F582E49583F583E58124FEF8E630E70AB2D518E8
:1D166900E4C396F6E40896F918E6F81216D530D50BE4C39582F582E49583F58322E8
:20168600E58124FEF88601188600E84960367A01E825E0F8E933400EF9E58298E5839940D5
:2016A600030A80ECC3E913F9E813F8C3E58298F5F0E583994005F58385F082C3E913F9E804
:0516C60013F8DAE72231
:2016CB00E58124FEF8E6F918E6F87A10E4FBFCE58225E0F582E58333F583EB33FBEC33FC1B
:1116EB00EB98F5F0EC994006FCABF0438201DADF2283
:0416FC0075820022D1
:00000001FF
